:100176003F065B4F666D7D077F6F777C395E7971D1
:100186000040761E7038375C733E783D6750376E98
:10019600BF86DBCFE6EDFD87FFEF460102040810C0
:0301A60020408076
:1001CC00012400082510101010101010100122002E
:0B01DC00012D00012300012E00C101D5
:1001E800E5A0541F4480F5A07580FFE5A0541F4486
:0A01F800A0F5A0E4F58053A01F223B
:10022D00758901758CF0758A5FD2A9D2AFD28C22F7
:100137007580FFE5A0541F44E0F5A053A01FE521FB
:100147009001A193F580E5A0541F44C0F5A053A0EA
:100157001F74252521F8E690017693F4F580E5A034
:0E016700541F44E0F5A053A01F0521532107AB
:010175002267
:100202008F258D268B27850E2885102985122A8514
:06021200142B85162C22BE
:10000E001201E812022D20B3137F147E0012021883
:10001E0020B309E4F522F52DF523F52E20B2117F3C
:10002E00147E0012021820B207B201A201B3928C04
:10003E00300032C2000522E522D394094027052D57
:10004E00E52DD39405401B0523E523D39409400FDA
:10005E00052EE52ED394054003E4F52EE4F523E4B6
:10006E00F52DE4F522750D00750E10750F00852E19
:10007E0010751100852312751300852D147515004A
:10008E008522167B107A007D107C007F10120202F2
:0D009E001201377F147E00120218020014B8
:03000B000201A946
:1001A900C0E0C0F0C0D0758CF0758A5F0524E524E5
:1001B90075F0FA84E5F07004D200F524D0D0D0F0BF
:0301C900D0E03251
:10021800EF1FAC0670011E4C600A7D027CEFDCFE0D
:04022800DDFC80EC8D
:01022C0022AF
:030000000200AB50
:0C00AB00787FE4F6D8FD75812E0200F28B
:1000B70002000EE493A3F8E493A34003F68001F251
:1000C70008DFF48029E493A3F85407240CC8C3334A
:1000D700C4540F4420C8834004F456800146F6DF19
:1000E700E4800B01020408102040809001CCE47EDC
:1000F700019360BCA3FF543F30E509541FFEE4930E
:10010700A360010ECF54C025E060A840B8E493A3D4
:10011700FAE493A3F8E493A3C8C582C8CAC583CAFF
:10012700F0A3C8C582C8CAC583CADFE9DEE780BEB7
:0101E7000017
:00000001FF
