:10012F00EF24FB601314601914601F24037023E580
:10013F00A0541F4480F5A022E5A0541F44A0F5A0B1
:10014F0022E5A0541F44C0F5A022E5A0541F44E0AF
:03015F00F5A022E6
:0B018D00D2AFD2A8D288D2AAD28A2218
:100162007F0512012FE4F5801F12012F7580FF22F7
:0C000600E5A0541F4480F5A0850880226E
:0F017200E5A0541F4480F5A0E5085509F580224B
:10001600C2B0D2B3D2B2D2B1D2B4D2B5D2C2D2C4A5
:1000260020C40B7508FF12000620C42A80FB20C2DC
:100036000B75087F12000620C21C80FB20B50B75CD
:1000460008BF12000620B50E80FB20B40975083FD4
:1000560012000630B4FDC2B1D2B3D2B2D2B0D2B41D
:10006600D2B5D2C2D2C420C40B7508DF1200062056
:10007600C42A80FB20C20B75085F12000620C21C32
:1000860080FB20B50B75089F12000620B50E80FB7D
:1000960020B40975081F12000630B4FDC2B2D2B3EF
:1000A600D2B0D2B1D2B4D2B5D2C2D2C420C40B75AA
:1000B60008EF12017220C42A80FB20C20B75086F5C
:1000C60012017220C21C80FB20B50B7508AF12010D
:1000D6007220B50E80FB20B40975082F120172300C
:1000E600B4FDC2B3D2B0D2B2D2B1D2B4D2B5D2C2BA
:1000F600D2C420C40B7508CF12017220C42A80FB1B
:1001060020C20B75084F12017220C21C80FB20B55D
:100116000B75088F12017220B50E80FB20B409758D
:09012600080F12017230B4FD2231
:0B01980012016212018D12001680FBA4
:030003000201A354
:0B01A300C2A820B2037509FCD2A832EC
:030013000201AE39
:0B01AE00C2AA20B3037509F3D2AA32E5
:0300000002018179
:0C018100787FE4F6D8FD75810902019832
:00000001FF
