:10072200C0F9A4B0999282F880908883C6A1868E7F
:10073200FFBF89E18FC7C8A38CC187C298AFC89198
:1007420040792430191202780010B901020408100D
:03075200204080C4
:100755000124010A3600000000000000000000012D
:1007650034FF0140FF01230AC102C1030133000127
:0C077500210008271010101010101010A8
:10079800EF1FAC0670011E4C600A7D027CEFDCFE88
:0407A800DDFC80EC08
:0107AC00222A
:1006B0007580FFE5A0541F4480F5A053A01F7580EE
:1006C000AFE5A0541F44A0F5A053A01F7580FFE51F
:1006D000A0541F44C0F5A053A01F7580FFE5A0548F
:0906E0001F44E0F5A053A01F2205
:1007AD005389F0758A18758CFCC28DD28CD2A9D262
:0207BD00AF2269
:1005C800E4FB20B0047B07801320B1047B06800C79
:1005D80020B2047B05800520B3027B04EB65216013
:1005E800397F147E00120798EB6521602D8B21EB73
:1005F8006028EB6521702020B0047B0780F420B1CF
:10060800047B0680ED20B2047B0580E620B3047BE2
:0C0618000480DFE4FB80DBAF21227F00C8
:0106240022B3
:100672007580FFE5A0541F44E0F5A053A01FE522BA
:1006820090074D93F580E5A0541F44C0F5A053A0F8
:100692001F74272522F8E690072293F580E5A054DF
:0D06A2001F44E0F5A053A01F0522532207BE
:0106AF002228
:100782008F278D288B29850E2A85102B85122C8583
:06079200142D85162E2235
:1006E9001206B01207AD1207BF300107C201120589
:1006F900C88F32300007C2001206258F31E5242445
:10070900FE600C14600E240270DF12025880DA12A7
:09071900039B80D512056580D018
:10025800E5A0541F4480F5A07580FFE532B406067A
:10026800752403E4F532E532B40509752402E4F592
:10027800327540FFE532B40705B204E4F532E532E1
:1002880064047032D202F533F5320534C374FF9535
:1002980023FFE531D39F40028F31E531C3952350C9
:1002A8000385233174362534F8A631E53475F00A10
:1002B8001201D385F03474352534F8E62004077527
:1002C8002F00F530800EFF74362534F8E62FF53010
:1002D800E433F52FC3E534648094804074AE2FAFC7
:1002E800307C007D641201F5AA06AB07AE2FAF3053
:1002F8007C007D0A1201F57C007D0A1201F58C0D47
:100308008D0EA204E433FFC007AE2FAF307C007D12
:100318000A1201F5ED2420F510E43CF50F7436259A
:1003280034F8E6FF75F06484751100F512EF75F086
:100338000A8475F00A84AFF07513008F14E675F01F
:100348000A84AFF07515008F16D0077D107C0080E9
:100358003EA204E433FFE4F50DF50EF50F75102009
:10036800E53175F06484751100F512E53175F00A10
:100378008475F00A84E5F0751300F514E53175F01D
:100388000A84E5F0751500F516E4FBFA7D10FC12F9
:03039800078222B7
:10039B00E5A0541F4480F5A0E4F58053A01FE5327F
:1003AB00B40506752401E4F532E532B40710E4F523
:1003BB00320540E54075F00A1201D385F040C3E5E4
:1003CB0040648094804057E54075F00A1201D3FFDA
:1003DB00E54075F00A1201D3AEF0EEFD3395E0FC6B
:1003EB00750D00750E10750F0075101074362540C5
:1003FB00F8E6F975F06484751100F512E975F00AE9
:10040B008475F00A84E5F0751300F514E975F00AAC
:10041B0084E5F0751500F5167B107A00801AE4F56B
:10042B000DF50EF50FF510F511F512F513F514F595
:0C043B0015F516FBFAFDFCFF12078222EB
:10056500E5A0541F4480F5A0E4F58053A01FE532B3
:10057500B40606752401E4F532E532B4070E740AB3
:100585002523F523D3945A4003E4F523750D00750F
:100595000E10750F00751010751100751210E523FA
:1005A50075F00A84751300F514E52375F00A84AF18
:1005B500F07515008F167B107A007D107C007F0F7B
:0305C500020782A8
:03000B00020447A5
:10044700C0E0C0F0C083C082C0D075D000C000C07B
:1004570004C005C006C0071206720526E52670020D
:100467000525AE25FF7C007D0A1201F5ED4C7002D3
:10047700D201AE25AF267C007D321201F5ED4C701E
:100487002DD200300228B203E5A0541F4480F5A006
:100497003003047FFE80027FFF8F80E533C394140F
:1004A700400AC2027533007580FF80020533AE250E
:1004B700AF267C037DE81201F58C258D26D007D069
:1004C70006D005D004D000D0D0D082D083D0F0D0D1
:0204D700E03211
:1007BF00538EBF53890FE4F58BF58DC28FC28E22F6
:0600030000007F1BDFFE80
:0100090022D4
:10062500E4FDD290120003C2901200030DBD0AF240
:10063500D28E309103308FFAC28E308F06C28F7EF4
:10064500FF8022AF8DEFFEAD8B7C00E42DFDEC3EEF
:10065500FCE41201197B967A43798B783C12000EE3
:0C066500120152AE07E4F58DF58BAF06D4
:010671002266
:10000E00EC4D6011E8497017ED33EC3304600DE4EC
:10001E00FCFFFEFD22E933E8330470F80201BE1244
:10002E00018958046009E4CC248150062850090245
:10003E0001C82840030201C5C0E0EB4A7044B980F4
:10004E0006D0E0FB0201B4EF4E701CBD8008EBFF42
:10005E00EAFEE9FD80EBE98DF0A4FEE5F00200F783
:10006E00E9CDF9EAFEEBFFEF89F0A4FCE5F0CE89CD
:10007E00F0A42EFFE435F0CD89F0A42DFEE435F08A
:10008E008067EF4E7005BD80D780C3EF8BF0A4ACB8
:10009E00F0EE8BF0A42CFCE435F0F8EF8AF0A42CF3
:1000AE00E5F038FCE433CB8DF0A42CFCE5F03BF806
:1000BE00EE8AF0A42CFCE5F038F8E433CF89F0A4F6
:1000CE002CFCE5F038CF3400CE89F0A42FFFE5F0FC
:1000DE003EFEE433C98DF0A42EFEE5F039CD8AF054
:1000EE00A42FFFE5F03EFEE43DFD33D0E0FB5007CC
:1000FE000BBB000F0201C8EC2CFCEF33FFEE33FEFE
:06010E00ED33FD0201A02B
:1001140075F020800E75F010800575F0087D007E66
:10012400007F003392D530D50312024AEC334010DD
:10013400EF33FFEE33FEED33FDEC33FCD5F0ED226F
:0E014400E5F0247EA2D513CC92E7CDCEFF22AB
:10015200EDD2E7CD33EC3392D524814006E4FFFEA5
:10016200FDFC22FCE4CFCECDCC24E0501174FF8004
:10017200EDC3CC13CCCD13CDCE13CECF13CF0470A1
:07018200F030D5DE02024A55
:10018900E9D2E7C933E833F892D5EDD2E7CD33ECBC
:0701990033FC5002B2D52235
:1001A000EC30E7100FBF000C0EBE00080DBD0004C0
:1001B0000BEB6014A2D5EB13FCED92E7FD2274FF6C
:1001C000FCFDFEFF22E480F8A2D574FF13FC7D80C5
:0301D000E480EFD9
:030000000204D91E
:0C04D900787FE4F6D8FD75814002052014
:1001D300C2D530F707B2D563F0FF05F030E70CB2B4
:1001E300D5F4048463F0FF05F080018430D502F474
:0201F3000422E4
:1001F500BC000BBE0029EF8DF084FFADF022E4CCEE
:10020500F875F008EF2FFFEE33FEEC33FCEE9DECB6
:10021500984005FCEE9DFE0FD5F0E9E4CEFD22EDFC
:10022500F8F5F0EE8420D21CFEADF075F008EF2F46
:10023500FFED33FD4007985006D5F0F222C398FD37
:050245000FD5F0EA22D4
:0E024A00C3E49FFFE49EFEE49DFDE49CFC22C5
:1004E5000206E9E493A3F8E493A34003F68001F23E
:1004F50008DFF48029E493A3F85407240CC8C33318
:10050500C4540F4420C8834004F456800146F6DFE6
:10051500E4800B0102040810204080900755E47E1A
:10052500019360BCA3FF543F30E509541FFEE493DB
:10053500A360010ECF54C025E060A840B8E493A3A2
:10054500FAE493A3F8E493A3C8C582C8CAC583CACD
:10055500F0A3C8C582C8CAC583CADFE9DEE780BE85
:010781000077
:00000001FF
