:10000E0001D2020B024B029302BA0310037003AE2D
:10001E000417049705270575062006E00749082EE4
:10002E00092F0A490AE80C3E0DBD0BB40BB40AB4F5
:10003E000AB409B409B408B408B40B280A280B286A
:10004E000E280B280A280B280A280B280D280B2807
:10005E000A280B280A280B280D280B280A280A28FC
:10006E0009280A280F280A2809280D2809280A28ED
:10007E000F280A2809280A2809280A280F280A28DA
:10008E0009280D2809280A280F280A2809280A28CD
:10009E000B280A280E280AA00A500A280B280A281C
:1000AE000B280D280B280A280B280A28062809A039
:1000BE00095011500F280D280B500A280B280A281A
:1000CE0006280AA00A500A280B280A280B280D28F1
:1000DE000B280A280B280A28092806A0061407143C
:1000EE00091409140A140B140C140D140E140F1405
:0500FE0011141214FFB3
:03000300010900F0
:1002FC007580FFE5A0541F4480F5A053A01F7580A6
:10030C00AFE5A0541F44A0F5A053A01F7580FFE5D6
:10031C00A0541F44C0F5A053A01F7580FFE5A05446
:09032C001F44E0F5A053A01F22BC
:10037000AB07AA06E4F9F87F207EA17D07FC1202F4
:0B038000B8C3E49FFFE49EF50D8F085A
:01038B00224F
:10025D00E50990003893B4FF04E4F50922AF0905D0
:10026D0009EF90003893F50BAF090509EF93F50AE7
:10027D00E5A0541F4480F5A0E50B75F00784AFF0A1
:10028D007401A807088002C333D8FCF4F58053A08D
:10029D001FE50B25E0240EF582E43400F583E4938D
:0B02AD00FE740193FF120370D28C223C
:03000B0002038C61
:10038C00C0E0C28CE5A0541F44A0F5A0B28653A0D7
:0C039C001F850D8C85088AD28CD0E032C1
:10033500D3EF9400EE940040147D7B7C00ED1D709E
:0D034500011CED4C70F7EF1F70E61E80E309
:010352002288
:100353001202FC758901D2AFD2A912025DE50A75BA
:0D036300F032A4FFAEF0120335C28C80ED25
:030000000201D129
:0C01D100787FE4F6D8FD75810D0202185D
:1002B800C2D5E830E70FB2D5E4C39BFBE49AFAE471
:1002C80099F9E498F8EC30E717B2D51202EE12016A
:1002D8003FE4C39BFBE49AFAE499F9E498F88003B5
:1002E80012013F30D50DE4C39FFFE49EFEE49DFD5F
:0402F800E49CFC2264
:1001DD00020353E493A3F8E493A34003F68001F2E2
:1001ED0008DFF48029E493A3F85407240CC8C33323
:1001FD00C4540F4420C8834004F456800146F6DFF2
:10020D00E4800B0102040810204080900003E47E7E
:10021D00019360BCA3FF543F30E509541FFEE493E6
:10022D00A360010ECF54C025E060A840B8E493A3AD
:10023D00FAE493A3F8E493A3C8C582C8CAC583CAD8
:10024D00F0A3C8C582C8CAC583CADFE9DEE780BE90
:0100060000F9
:1001030075F008758200EF2FFFEE33FECD33CDCCB3
:1001130033CCC58233C5829BED9AEC99E582984036
:100123000CF582EE9BFEED9AFDEC99FC0FD5F0D613
:10013300E4CEFBE4CDFAE4CCF9A88222B800C1B93D
:100143000059BA002DEC8BF084CFCECDFCE5F0CB7B
:10015300F97818EF2FFFEE33FEED33FDEC33FCEBB4
:1001630033FB10D703994004EB99FB0FD8E5E4F96F
:10017300FA227818EF2FFFEE33FEED33FDEC33FC5C
:10018300C933C910D7059BE99A4007EC9BFCE99A50
:10019300F90FD8E0E4C9FAE4CCFB2275F010EF2F95
:1001A300FFEE33FEED33FDCC33CCC833C810D70795
:1001B3009BEC9AE899400AED9BFDEC9AFCE899F8D0
:0E01C3000FD5F0DAE4CDFBE4CCFAE4C8F92263
:00000001FF
