:060637000128030123006D
:10000E00EF1FAC0670011E4C600A7D027CEFDCFE19
:04001E00DDFC80EC99
:0100220022BB
:10058900E5A0541F4480F5A07580FF53A01FE5A086
:0D059900541F44A0F5A0E4F58053A01F22DC
:1005F500758920758DFD758BFDD28E759850E4F546
:060605008ED2ACD2AF2240
:10064800758901758CEC758A78D2A9D2AFD28C22C3
:1002EE001205891206481205F520000302038275D5
:1002FE0099203099FDC299E5272430F5993099FD62
:10030E00C29975992E3099FDC299E5212430F5993F
:10031E003099FDC299E5222430F5993099FDC299A4
:10032E00C200AF281205638F24AC24E41201D6E478
:10033E00FBFA797F784312012FE4FBFA79FA7843BE
:10034E0012002612020A8E298F2A7C007D64120268
:10035E008B8F27AE29AF2A7C007D0A12028B7C0080
:10036E007D0A12028B8D21AE29AF2A7C007D0A12E6
:10037E00028B8D22AE29AF2A7C007D6412028BEF98
:10038E002420FBE43EFAAE29AF2A7C007D0A12023D
:10039E008B7C007D0A12028B8C138D148A118B12AA
:1003AE00750D00750E10750F00751010AE29AF2A61
:1003BE007C007D0A12028B8C158D167B107A007DC7
:1003CE00107C007F101206211204C5AF2412060BFA
:0A03DE007F0A7E0012000E0202F7F3
:030023000206676B
:0E066700309902C299309805C29885992332C5
:03000B0002047478
:10047400C0E0C0F0C0D075D000C000C004C005C04A
:1004840006C007758CEC758A780526E5267002058A
:1004940025AE25FF7C007DC812028BED4C7002D284
:1004A40000AE25AF267C037DE812028B8C258D26B9
:1004B400D007D006D005D004D000D0D0D0F0D0E002
:0104C4003205
:04067500D2A07F058B
:0806790000AE071FEE70F9222C
:0F065800D2A1120675C2A17F05120679C2A02297
:0C068100C2A1120675D2A17F0502067905
:1005DE00C2A0A20192A17F05120679120675C2A0D1
:0705EE00D2A17F050206798E
:0A05C300AB071206587F90120537AF
:1005CD00120675A2A19201C2A07F05120679A201A1
:0105DD0022FB
:02053700AD070E
:10053900E4FCC2A07F05120679ED30E704D2A18060
:1005490002C2A17F05120679D2A0ED25E0FD7F0543
:090559001206790CBC08DBC2A0FB
:010562002276
:1005A600E4FC120675ED25E0FD30A103430501C20A
:0C05B600A07F051206790CBC08E8AF0518
:0105C2002216
:10060B001205C37F431205371205CDAF0312053711
:06061B001205CD0206816C
:100563001205C3AF031205371205CD1206587F914A
:100573001205371205CD1205A6AD07D2011205DE0D
:05058300120681AF0526
:010588002250
:100504003F065B4F666D7D077F6F777C395E79713F
:100514000040761E7038375C733E783D6750376E06
:10052400BF86DBCFE6EDFD87FFEF4601020408102E
:03053400204080E4
:0A063D000818101010101010101013
:1004C5007580FFE5A0541F44E0F5A053A01FE51774
:1004D50090052F93F580E5A0541F44C0F5A053A0C7
:1004E5001F74182517F8E690050493F4F580E5A028
:0E04F500541F44E0F5A053A01F05175317072E
:0105030022D5
:100621008F188D198B1A850E1B85101C85121D853F
:06063100141E85161F22B5
:10002600EC4D6011E8497017ED33EC3304600DE4D4
:10003600FCFFFEFD22E933E8330470F80202761273
:10004600024158046009E4CC248150062850090274
:10005600028028400302027DC0E0EB4A7044B9806A
:1000660006D0E0FB02026CEF4E701CBD8008EBFF71
:10007600EAFEE9FD80EBE98DF0A4FEE5F002010F52
:10008600E9CDF9EAFEEBFFEF89F0A4FCE5F0CE89B5
:10009600F0A42EFFE435F0CD89F0A42DFEE435F072
:1000A6008067EF4E7005BD80D780C3EF8BF0A4ACA0
:1000B600F0EE8BF0A42CFCE435F0F8EF8AF0A42CDB
:1000C600E5F038FCE433CB8DF0A42CFCE5F03BF8EE
:1000D600EE8AF0A42CFCE5F038F8E433CF89F0A4DE
:1000E6002CFCE5F038CF3400CE89F0A42FFFE5F0E4
:1000F6003EFEE433C98DF0A42EFEE5F039CD8AF03C
:10010600A42FFFE5F03EFEE43DFD33D0E0FB5007B3
:100116000BBB000F020280EC2CFCEF33FFEE33FE2C
:06012600ED33FD0202585A
:10012C00020280EC5D046005E8590470030202765B
:10013C00120241580460F6EC4860F2EC7004FDFECB
:10014C00FF22C860DB2481C85009C39860025006A6
:10015C0002027D9850CAF582E9294B4A7005AB82A0
:10016C0002026C75F0007C1A7880C3EF9BEE9AED5E
:10017C0099400DC3EF9BFFEE9AFEED99FDE842F01E
:10018C00DC23ACF0D0E0FFD0E0FED0E0FDAB822071
:10019C00E7101BEB60BAEC2CFCEF33FFEE33FEEDFB
:1001AC0033FD020258E803F830E705C0F075F000A3
:1001BC00EF2FFFEE33FEED33FD40B830E7C280AADF
:1001CC0075F020800E75F010800575F0087D007EAE
:1001DC00007F003392D530D5031202E0EC3340108F
:1001EC00EF33FFEE33FEED33FDEC33FCD5F0ED22B7
:0E01FC00E5F0247EA2D513CC92E7CDCEFF22F3
:10020A00EDD2E7CD33EC3392D524814006E4FFFEEC
:10021A00FDFC22FCE4CFCECDCC24E0501174FF804B
:10022A00EDC3CC13CCCD13CDCE13CECF13CF0470E8
:07023A00F030D5DE0202E006
:10024100E9D2E7C933E833F892D5EDD2E7CD33EC03
:0702510033FC5002B2D5227C
:10025800EC30E7100FBF000C0EBE00080DBD000407
:100268000BEB6014A2D5EB13FCED92E7FD2274FFB3
:10027800FCFDFEFF22E480F8A2D574FF13FC7D800C
:03028800E480EF20
:030000000203E810
:0C03E800787FE4F6D8FD75812A02042F0E
:10028B00BC000BBE0029EF8DF084FFADF022E4CC57
:10029B00F875F008EF2FFFEE33FEEC33FCEE9DEC20
:1002AB00984005FCEE9DFE0FD5F0E9E4CEFD22ED66
:1002BB00F8F5F0EE8420D21CFEADF075F008EF2FB0
:1002CB00FFED33FD4007985006D5F0F222C398FDA1
:0502DB000FD5F0EA223E
:0E02E000C3E49FFFE49EFEE49DFDE49CFC222F
:1003F4000202EEE493A3F8E493A34003F68001F22F
:1004040008DFF48029E493A3F85407240CC8C33309
:10041400C4540F4420C8834004F456800146F6DFD8
:10042400E4800B0102040810204080900637E47E2B
:10043400019360BCA3FF543F30E509541FFEE493CD
:10044400A360010ECF54C025E060A840B8E493A394
:10045400FAE493A3F8E493A3C8C582C8CAC583CABF
:10046400F0A3C8C582C8CAC583CADFE9DEE780BE77
:0106470000B2
:00000001FF
