:1001D500C0F9A4B0999282F880908883C6A1868ED2
:1001E500FFBF89E18FC7C8A38CC187C298AFC891EB
:1001F50040792430191202780010B9010204081060
:0302050020408016
:10022B00010C00080D101010101010101001090017
:0C023B00011500010A00011600010B0073
:10000E00EF1FAC0670011E4C600A7D027CEFDCFE19
:04001E00DDFC80EC99
:0100220022BB
:10024800E5A0541F4480F5A07580FFE5A0541F4425
:0A025800A0F5A0E4F58053A01F22DA
:10026200758920758DFD758BFDD28E759850E4F5DC
:060272008ED2ACD2AF22D7
:10028E00758901758CF0758A5FD2A9D2AFD28C2296
:10015C007580FFE5A0541F44E0F5A053A01FE508EF
:10016C0090020093F580E5A0541F44C0F5A053A065
:10017C001F740D2508F8E69001D593F580E5A05481
:0D018C001F44E0F5A053A01F05085308070D
:010199002243
:100278008F0D8D0E8B0F852710852911852B1285E3
:060288002D13852F142246
:1000260012024812028E120262300066E516243071
:10003600F5993099FDC299E50A2430F5993099FD74
:10004600C29975993A3099FDC299E5152430F5990A
:100056003099FDC299E5092430F5993099FDC29988
:10006600C2000509E509D3940940270515E515D30E
:100076009405401B050AE50AD39409400F0516E5C9
:1000860016D394054003E4F516E4F50AE4F515E401
:10009600F509752600752710752800851629752A15
:1000A60000850A2B752C0085152D752E0085092FC8
:1000B6007B107A007D107C007F1012027812015CA2
:0A00C6007F0A7E0012000E02002FD8
:0300230002019A3D
:10019A00C0E0C0D0309902C29930982AC298859995
:1001AA000BE50B24CE600714600824027012B28C8F
:1001BA008014750900751500750A00751600800609
:0B01CA0075990E7580FFD0D0D0E03298
:03000B00020208E6
:10020800C0E0C0F0C0D0758CF0758A5F050CE50CB5
:1002180075F0FA84E5F07004D200F50CD0D0D0F077
:03022800D0E032F1
:030000000200D02B
:0C00D000787FE4F6D8FD75812F0201173F
:1000DC00020026E493A3F8E493A34003F68001F214
:1000EC0008DFF48029E493A3F85407240CC8C33325
:1000FC00C4540F4420C8834004F456800146F6DFF4
:10010C00E4800B010204081020408090022BE47E56
:10011C00019360BCA3FF543F30E509541FFEE493E8
:10012C00A360010ECF54C025E060A840B8E493A3AF
:10013C00FAE493A3F8E493A3C8C582C8CAC583CADA
:10014C00F0A3C8C582C8CAC583CADFE9DEE780BE92
:0102470000B6
:00000001FF
