:1007B400C0F9A4B0999282F880908883C6A1868EED
:1007C400FFBF89E18FC7C8A38CC187C298AFC89106
:1007D40040792430191202780010B901020408107B
:0307E40020408032
:10081200010E01010D000108000814101010101043
:03082200101010A3
:1007FD00EF1FAC0670011E4C600A7D027CEFDCFE23
:04080D00DDFC80ECA2
:0108110022C4
:10070E007580FFE5A0541F4480F5A053A01F75808F
:10071E00AFE5A0541F44A0F5A053A01F7580FFE5C0
:10072E00A0541F44C0F5A053A01F7580FFE5A05430
:09073E001F44E0F5A053A01F22A6
:10084D005389F0758A18758CFCC28DD28CD2A9D2C1
:02085D00AF22C8
:10067300E4FB20B0047B07801320B1047B06800CCD
:1006830020B2047B05800520B3027B04EB65086080
:10069300397F147E001207FDEB6508602D8B08EB94
:1006A3006028EB6508702020B0047B0780F420B13C
:1006B300047B0680ED20B2047B0580E620B3047B37
:0C06C3000480DFE4FB80DBAF08227F0036
:0106CF002208
:1006D0007580FFE5A0541F44E0F5A053A01FE50975
:1006E0009007DF93F580E5A0541F44C0F5A053A008
:1006F0001F74142509F8E69007B493F580E5A0541B
:0D0700001F44E0F5A053A01F050953090791
:01070D0022C9
:1007E7008F148D158B16852717852918852B198545
:0607F7002D1A852F1B22C4
:1003360012070E12084D7B327A007D3B7C007F1738
:100346001205FE300207C2021206738F1EE50E2446
:10035600FE600C14600E2402700D12042180081237
:10036600000E80031201A230016FC2017F851207C1
:10037600808F1C7F831207808F1D7F811207808FDD
:1003860013E51CC4540F75F00AA4FFE51C540F7C3A
:10039600002FFFEC35F0FEEF650A7001EE703AE5CE
:1003A6001DC4540F75F00AA4FFE51D540F2FFFEC72
:1003B60035F0FEEFB50B22ECB5061EE513C4540F5F
:1003C60075F00AA4FFE513540F2FFFEC35F0FEEF8E
:1003D600B50C06ECB50602D200200003020349E57F
:1003E600A0541F4480F5A0E4F580E5A0541F44A066
:1003F600F5A0D286E51E7003020349E4F51EC2008D
:10040600E5A0541F4480F5A07580FFE5A0541F4465
:0B041600A0F5A0C28653A01F020349FE
:10042100E51E6404703C200039750E02E51CC454BD
:100431000F75F00AA4FFE51C540F2FF510E51DC43C
:10044100540F75F00AA4FFE51D540F2FF511E513A4
:10045100C4540F75F00AA4FFE513540F2FF512E4ED
:10046100F51EE51E6407703E20003B750E03F50D79
:10047100E51CC4540F75F00AA4FFE51C540F2FF5B9
:1004810010E51DC4540F75F00AA4FFE51D540F2F8C
:10049100F511E513C4540F75F00AA4FFE513540FC9
:1004A1002FF512E4F51EE51CC4540FFFE51C540F93
:1004B100FD7C00E51DC4540F752600F527E51D548C
:1004C1000F752800F529752A00752B11E513C45401
:1004D1000F752C00F52DE513540F752E00F52F7BAC
:0604E100117A000207E79A
:10000E00E51EB4040E20000B050DE50D75F00384FE
:10001E0085F00DE51E640570432000407410250D1B
:10002E00F806E50D1460161460222402702B74106D
:10003E00250DF8E6D394174020E4F6801C741025A5
:10004E000DF8E6D3943B4011E4F6800D7410250DA7
:10005E00F8E6D3943B4002E4F6E4F51EE51E640692
:10006E00701E20001BC2A9E511FD7C00E512FB7A73
:10007E0000AF101205FED2A9E4F50DF51E750E01A6
:10008E00E51330E02CE51075F00A84FFE51075F0ED
:10009E000A84E5F0FD7C00E51175F00A84752600F2
:1000AE00F527E51175F00A84E5F0752800F529802D
:1000BE007BE51330E0030201A1E50D1460501470CE
:1000CE000302015E240260030201A1E51175F00A2C
:1000DE0084752600F527E51175F00A84AFF07528B2
:1000EE00008F29752A00752B11E51275F00A84759B
:1000FE002C00F52DE51275F00A84AFF0752E008FE9
:10010E002F7B117A007D107C007F1002019EE5107E
:10011E0075F00A84FFE51075F00A84E5F0FD7C00A9
:10012E00752600752710752800752910752A00751B
:10013E002B11E51275F00A84752C00F52DE512755C
:10014E00F00A84E5F0752E00F52F7B117A008040C1
:10015E00E51075F00A84FFE51075F00A84E5F0FDF0
:10016E007C00E51175F00A84752600F527E51175FA
:10017E00F00A84E5F0752800F529752A00752B1113
:10018E00752C00752D10752E00752F107B117A00B1
:04019E001207E7223B
:1001A200E51EB4040E20000B050DE50D75F0038469
:1001B20085F00DE51E64057043200040740A250D8C
:1001C200F806E50D1460161460222402702B740ADE
:1001D200250DF8E6D394174020E4F6801C740A2516
:1001E2000DF8E6D3943B4011E4F6800D740A250D18
:1001F200F8E6D3943B4002E4F6E4F51EE51E6406FD
:10020200701E20001BC2A9E511FD7C00E512FB7ADD
:1002120000AF101205FED2A9E4F50DF51E750E0110
:10022200E51330E02CE50A75F00A84FFE50A75F063
:100232000A84E5F0FD7C00E50B75F00A8475260062
:10024200F527E50B75F00A84E5F0752800F529809D
:100252007BE51330E003020335E50D1460501470A2
:10026200030202F224026003020335E50B75F00A71
:1002720084752600F527E50B75F00A84AFF0752822
:10028200008F29752A00752B11E50C75F00A84750B
:100292002C00F52DE50C75F00A84AFF0752E008F59
:1002A2002F7B117A007D107C007F10020332E50A59
:1002B20075F00A84FFE50A75F00A84E5F0FD7C001A
:1002C200752600752710752800752910752A007586
:1002D2002B11E50C75F00A84752C00F52DE50C75D3
:1002E200F00A84E5F0752E00F52F7B117A0080402C
:1002F200E50A75F00A84FFE50A75F00A84E5F0FD67
:100302007C00E50B75F00A84752600F527E50B7570
:10031200F00A84E5F0752800F529752A00752B117D
:10032200752C00752D10752E00752F107B117A001B
:040332001207E722A5
:03000B00020747A2
:10074700C0E0C0F0C083C082C0D075D000C0001226
:1007570006D0050FE50F75F00A84E5F07002D201A7
:10076700E50F75F03284E5F07002D202D000D0D0E8
:09077700D082D083D0F0D0E03232
:10083A00E4FEC297EF1392A3EFC313FFD2970EBE43
:02084A0008F0B4
:01084C002289
:10082600C29300C29700D2930012083AAF0512088D
:040836003AC293220D
:10078000E4FDC29300C29700D2930012083AE4FF3E
:10079000C297EDC313FD30A303430580D2970FBF6B
:1007A00008EEC29300C29700D29700C2A300D2A362
:0307B00000AF0592
:0107B3002223
:1005FE008C218D228A238B24A907E4FD7F8E12087D
:10060E0026E975F00A84C454F0FFE975F00A84EF08
:10061E0025F0FD7F84120826AE21AF227C007D0AD4
:10062E00120573EFC454F0FBAE21AF227C007D0A9D
:10063E00120573EB2DFD7F82120826AE23AF247CAC
:10064E00007D0A120573EFC454F0FBAE23AF247C79
:10065E00007D0A120573EB2DFD7F801208267D01A9
:05066E007F8E0208264A
:030000000204E710
:0C04E700787FE4F6D8FD75812F02052E09
:10057300C2D5EC30E709B2D5E4C39DFDE49CFCEEA3
:1005830030E715B2D5E4C39FFFE49EFE1205A9C36D
:10059300E49DFDE49CFC80031205A930D507C3E468
:0605A3009FFFE49EFE2212
:1004F300020336E493A3F8E493A34003F68001F2E6
:1005030008DFF48029E493A3F85407240CC8C33309
:10051300C4540F4420C8834004F456800146F6DFD8
:10052300E4800B0102040810204080900812E47E4E
:10053300019360BCA3FF543F30E509541FFEE493CD
:10054300A360010ECF54C025E060A840B8E493A394
:10055300FAE493A3F8E493A3C8C582C8CAC583CABF
:10056300F0A3C8C582C8CAC583CADFE9DEE780BE77
:0108250000D2
:1005A900BC000BBE0029EF8DF084FFADF022E4CC36
:1005B900F875F008EF2FFFEE33FEEC33FCEE9DECFF
:1005C900984005FCEE9DFE0FD5F0E9E4CEFD22ED45
:1005D900F8F5F0EE8420D21CFEADF075F008EF2F8F
:1005E900FFED33FD4007985006D5F0F222C398FD80
:0505F9000FD5F0EA221D
:00000001FF
