:100C9300C0F9A4B0999282F880908883C6A1868E09
:100CA300FFBF89E18FC7C8A38CC187C298AFC89122
:100CB30040792430191202780010B9010204081097
:030CC3002040804E
:100D3F000125000128010223000204463E4CCCCDC0
:0F0D4F00C104012100082C1010101010101010FA
:100E1500EF1FAC0670011E4C600A7D027CEFDCFE04
:040E2500DDFC80EC84
:010E290022A6
:100C5A007580FFE5A0541F4480F5A053A01F75803E
:100C6A00AFE5A0541F44A0F5A053A01F7580FFE56F
:100C7A00A0541F44C0F5A053A01F7580FFE5A054DF
:090C8A001F44E0F5A053A01F2255
:100E2A00538EBF53890F758B18758DFCC28FD28E66
:050E3A00D2ABD2AF2293
:100B3C00E4FB20B0047B07801320B1047B06800CFF
:100B4C0020B2047B05800520B3027B04EB65216099
:100B5C00397F147E00120E15EB6521602D8B21EB75
:100B6C006028EB6521702020B0047B0780F420B155
:100B7C00047B0680ED20B2047B0580E620B3047B69
:0C0B8C000480DFE4FB80DBAF21227F004F
:010B9800223A
:100C1C007580FFE5A0541F44E0F5A053A01FE5220A
:100C2C00900CBE93F580E5A0541F44C0F5A053A0D2
:100C3C001F742C2522F8E6900C9393F580E5A054B4
:0D0C4C001F44E0F5A053A01F05225322070E
:010C59002278
:100DE9008F2C8D2D8B2E850E2F85103085123185F8
:060DF900143285163322BE
:100E3F00538E7F758905E4F58AF58CC28DD28C228D
:1008DA00120C5A120E3F120E2A300307C203120BD1
:1008EA003C8F3E30001BC200C28CAF8CEFFEAD8A3B
:1008FA007C00E42DF527EC3EF526E4F58CF58AD24A
:10090A008C30012AC201C2A9120BDD8F428E418DA1
:10091A00408C3FD2A9E4FFFE7DC87C42AB42AA418B
:10092A00A940A83F1201161203738E348F35300284
:10093A0030C2027F03120D19AC07E412033F8F3B4A
:10094A008E3A8D398C38E4FBFA797F784312021F8C
:10095A00E4FBFA79FA78431201161203738E2A8F8E
:10096A002BE52824FE601014601324026003020899
:10097A00E31205250208E312075C0208E312098D57
:03098A000208E37D
:10052500E53EB4040EE4F53E0525E52575F00384A6
:1005350085F025E53EB40515E4F53E85343C853565
:100545003D852A43852B44852636852737E53EB4E8
:100555000616E4F525F53E752802E5A0541F4480EE
:10056500F5A07580FF53A01FE5257059E5A0541F20
:100575004480F5A07580FE53A01FAE2AAF2B7C00EA
:100585007D641203F4EF2420FBE43EFAAE2AAF2B80
:100595007C007D0A1203F47C007D0A1203F48C159D
:1005A5008D168A138B14750D00750E10750F007559
:1005B50010107511007512107B107A007D107C00EB
:1005C5007F19020700E52564016003020679E5A0AD
:1005D500541F4480F5A07580FD53A01FAE26AF279C
:1005E5007C277D101203F47C007D0A1203F4C005FC
:1005F500C004AE26AF277C037DE81203F47C007DA2
:100605000A1203F4AA04AB05AE26AF277C007D646D
:100615001203F47C007D0A1203F48C838D82AE26CE
:10062500AF277C007D0A1203F47C007D0A1203F4D7
:100635008C138D148583118582128A0F8B10D00D32
:10064500D00EAE26AF27E4FCFD7BA07A867901F8B3
:10065500120B99E47B0AFAF9F8120B99AE26AF272B
:100665007C007D0A1203F48C158D167D107C007FAD
:100675000F020700E52564026003020703E5A054A5
:100685001F4480F5A07580FB53A01FAE34AF357CA9
:10069500037DE81203F47C007D0A1203F4AA04AB7F
:1006A50005AE34AF357C007D641203F47C007D0A11
:1006B5001203F4ED2420F582E43CF583AE34AF3526
:1006C5007C007D0A1203F47C007D0A1203F48C136E
:1006D5008D148583118582128A0F8B10750D007517
:1006E5000E10AE34AF357C007D0A1203F48C158DE7
:1006F500167B107A007D107C007F0C120DE9E4FF5B
:10070500FE7DC87C42AB49AA48A947A846120116F6
:10071500C004C005C006C007AC2AAD2BE412033ADD
:10072500A804A905AA06AB07D007D006D005D004B2
:100735001202BC6021401F30041CE54520E00CE599
:10074500A0541F4480F5A075800F22E5A0541F44D6
:0707550080F5A07580FF2272
:10075C00E53EB4040EE4F53E0525E52575F003846D
:10076C0085F025E53EB40606E4F53E752803E5253F
:10077C007046AE43AF44FC7D641203F4EF2420FBBF
:10078C00E43EFAAE43AF447C007D0A1203F47C00D5
:10079C007D0A1203F48C158D168A138B14750D00BB
:1007AC00750E10750F007510107511007512107BF9
:1007BC00107A007D190208D2E52564016003020855
:1007CC0060AE36AF377C277D101203F47C007D0AB7
:1007DC001203F4C005C004AE36AF377C037DE812BB
:1007EC0003F47C007D0A1203F4AA04AB05AE36AF09
:1007FC00377C007D641203F47C007D0A1203F48CB8
:10080C00838D82AE36AF377C007D0A1203F47C00F8
:10081C007D0A1203F48C138D148583118582128A40
:10082C000F8B10D00DD00EAE36AF37E4FCFD7BA095
:10083C007A867901F8120B99E47B0AFAF9F8120B13
:10084C0099AE36AF377C007D0A1203F48C158D16E9
:10085C007D0F8072E52564027073AE3CAF3D7C0366
:10086C007DE81203F47C007D0A1203F4AA04AB05A4
:10087C00AE3CAF3D7C007D641203F47C007D0A121B
:10088C0003F4ED2420F582E43CF583AE3CAF3D7CD3
:10089C00007D0A1203F47C007D0A1203F48C138D84
:1008AC00148583118582128A0F8B10750D00750EBD
:1008BC0010AE3CAF3D7C007D0A1203F48C158D16F6
:0E08CC007B107A007D0C7C007F12120DE92259
:10098D00E53E6407705AD204F53EAF49AE48AD4717
:10099D00AC467BCD7ACC794C783E1200258F498EB2
:1009AD00488D478C46E4FFFE7DA07C40AB49AA48AC
:1009BD00A947A8461202BC600E400C7549CD75487A
:1009CD00CC75474C75463EE4FFFE7D207C41AB491E
:1009DD00AA48A947A8461201161203738E238F2425
:1009ED00E53EB40608E4F525F53E752801AE23AFC6
:1009FD00247C007D0A1203F4EF2420F514E43EF567
:100A0D0013750D00750E10750F0075101075110012
:100A1D00751210AE23AF247C007D0A1203F48C15E1
:0F0A2D008D167B107A007D107C007F18020DE97A
:03001B00020AC80E
:100AC800C0E0C0F0C083C082C0D075D000C000C0F4
:100AD80004C005C006C007120C1C0529E52975F0DD
:100AE8000A84E5F07002D203E52975F03284E5F056
:100AF8007002D202E52975F06484E5F07002D20133
:100B0800AF297E007C037DE81203F4ED4C7002D21D
:100B180000E52975F0C884E5F0700205458D29D0F7
:100B280007D006D005D004D000D0D0D082D083D052
:040B3800F0D0E032E7
:040E5E00D2A07F059A
:080E620000AE071FEE70F9223B
:0F0E4F00D2A1120E5EC2A17F05120E62C2A022B6
:0C0E6A00C2A1120E5ED2A17F05020E6232
:10000300C2A0A20592A17F05120E62120E5EC2A0CB
:07001300D2A17F05020E627D
:0A0D9A00AB07120E4F7F90120CC63B
:100DA400120E5EA2A19205C2A07F05120E62A205D8
:010DB400221C
:020CC600AD0778
:100CC800E4FCC2A07F05120E62ED30E704D2A180D9
:100CD80002C2A17F05120E62D2A0ED25E0FD7F05BC
:090CE800120E620CBC08DBC2A074
:010CF10022E0
:100D7D00E4FC120E5EED25E0FD30A103430501C23A
:0C0D8D00A07F05120E620CBC08E8AF0548
:010D99002237
:100DFF00120D9A7F43120CC6120DA4AF03120CC62C
:060E0F00120DA4020E6AA0
:100D1900120D9AAF03120CC6120DA4120E4F7F9139
:100D2900120CC6120DA4120D7DAD07D205120003D7
:050D3900120E6AAF0577
:010D3E002292
:040DB5007F057E0038
:100DB900EF1FAA0670011E4A600BE4FDEDC3940CF7
:050DC90050EE0D80F763
:010DCE002202
:020D5F00A907E2
:100D6100E4FBC294E9139294120DB5D294E9C31332
:0C0D7100F90BBB08ED7F057E00020DB9F8
:100DCF00E4FBC294ECC313FCD2943094034304802D
:090DDF00120DB50BBB08EBAF04CB
:010DE80022E8
:100CF200C205D2947F0C7E00120DB9C2947F507E41
:100D020000120DB9D2947F0A7E00120DB9A29492FC
:060D120005120DB5A2055B
:010D180022B8
:100BDD00120CF27FCC120D5F7F44120D5F7FC87E29
:100BED0000120DB9120CF27FCC120D5F7FBE120DEB
:100BFD005F120DCFA907120DCFEFFEE9FFFDAC0679
:0E0C0D00E412033AE4FBFA7980784112021FE8
:010C1B0022B6
:10001E000203DFE86480F8E933E83360110460F02E
:10002E00ED33EC337009E8FCE9FDEAFEEBFF220448
:10003E0060DED3EB9FEA9EE99DE8C2E78CF0C2F743
:10004E0095F0400CE8CCF8E9CDF9EACEFAEBCFFB0F
:10005E001203AA85D0F05804700320D5B3E80470BB
:10006E00075002B2D50203E992D5EC0460F7E4CC56
:10007E00C0E0C398F8603B94186008400DD0E0FBD8
:10008E000203C1E4FBFAC9FC8028E830E406E4C9A7
:10009E00FBE4CAFCE830E305E4C9CACBFCE854072C
:1000AE006010F8C3E913F9EA13FAEB13FBEC13FC37
:1000BE00D8F130F52FC3E49CFCEF9BFFEE9AFEEDDA
:1000CE0099FDD0E0FBEF4E4D4C701222DB03020384
:1000DE00E6EC2CFCEF33FFEE33FEED33FDED30E7B7
:1000EE00EB0203C1EF2BFFEE3AFEED39FDD0E0FB44
:1000FE0050130BBB00030203E9ED13FDEE13FEEFED
:08010E0013FFEC13FC0203C116
:10011600EC4D6011E8497017ED33EC3304600DE4E3
:10012600FCFFFEFD22E933E8330470F80203DF1218
:1001360003AA58046009E4CC248150062850090219
:1001460003E92840030203E6C0E0EB4A7044B980A5
:1001560006D0E0FB0203D5EF4E701CBD8008EBFF16
:10016600EAFEE9FD80EBE98DF0A4FEE5F00201FF71
:10017600E9CDF9EAFEEBFFEF89F0A4FCE5F0CE89C4
:10018600F0A42EFFE435F0CD89F0A42DFEE435F081
:100196008067EF4E7005BD80D780C3EF8BF0A4ACAF
:1001A600F0EE8BF0A42CFCE435F0F8EF8AF0A42CEA
:1001B600E5F038FCE433CB8DF0A42CFCE5F03BF8FD
:1001C600EE8AF0A42CFCE5F038F8E433CF89F0A4ED
:1001D6002CFCE5F038CF3400CE89F0A42FFFE5F0F3
:1001E6003EFEE433C98DF0A42EFEE5F039CD8AF04B
:1001F600A42FFFE5F03EFEE43DFD33D0E0FB5007C3
:100206000BBB000F0203E9EC2CFCEF33FFEE33FED1
:06021600ED33FD0203C1FF
:10021C000203E9EC5D046005E8590470030203DF96
:10022C001203AA580460F6EC4860F2EC7004FDFE70
:10023C00FF22C860DB2481C85009C39860025006B5
:10024C000203E69850CAF582E9294B4A7005AB8245
:10025C000203D575F0007C1A7880C3EF9BEE9AED03
:10026C0099400DC3EF9BFFEE9AFEED99FDE842F02D
:10027C00DC23ACF0D0E0FFD0E0FED0E0FDAB822080
:10028C00E7101BEB60BAEC2CFCEF33FFEE33FEED0A
:10029C0033FD0203C1E803F830E705C0F075F00048
:1002AC00EF2FFFEE33FEED33FD40B830E7C280AAEE
:1002BC0074F8CC6480CCC86480C8F58204604FC3E9
:1002CC00EB9FF5F0EA9E42F0E99D42F0E89C45F088
:1002DC00603C501DE5825FFFE582D313CB5BCBF412
:1002EC002B5582FB50280ABA002409B9002008803B
:1002FC001DE5825BFBE582D313CF5FCFF4C3132FD5
:10030C005582FF50090EBE00050DBD00010CC3EB5C
:10031C009FF5F0EA9E42F0E99D42F0E89C45F060C2
:09032C0007CC4820E701B3EC22E4
:1003350075F020800E75F010800575F0087D007E43
:10034500007F003392D530D503120449EC334010B9
:10035500EF33FFEE33FEED33FDEC33FCD5F0ED224C
:0E036500E5F0247EA2D513CC92E7CDCEFF2288
:10037300EDD2E7CD33EC3392D524814006E4FFFE82
:10038300FDFC22FCE4CFCECDCC24E0501174FF80E1
:10039300EDC3CC13CCCD13CDCE13CECF13CF04707E
:0703A300F030D5DE02044931
:1003AA00E9D2E7C933E833F892D5EDD2E7CD33EC99
:0703BA0033FC5002B2D52212
:1003C100EC30E7100FBF000C0EBE00080DBD00049D
:1003D1000BEB6014A2D5EB13FCED92E7FD2274FF49
:1003E100FCFDFEFF22E480F8A2D574FF13FC7D80A2
:0303F100E480EFB6
:03000000020A3CB5
:0C0A3C00787FE4F6D8FD758149020A833A
:1003F400BC000BBE0029EF8DF084FFADF022E4CCED
:10040400F875F008EF2FFFEE33FEEC33FCEE9DECB5
:10041400984005FCEE9DFE0FD5F0E9E4CEFD22EDFB
:10042400F8F5F0EE8420D21CFEADF075F008EF2F45
:10043400FFED33FD4007985006D5F0F222C398FD36
:050444000FD5F0EA22D3
:100B9900C2D5E830E70FB2D5E4C39BFBE49AFAE487
:100BA90099F9E498F8EC30E717B2D5120BCF120493
:100BB90093E4C39BFBE49AFAE499F9E498F8800377
:100BC90012049330D50DE4C39FFFE49EFEE49DFD1E
:040BD900E49CFC227A
:0E044900C3E49FFFE49EFEE49DFDE49CFC22C4
:100A48000208DAE493A3F8E493A34003F68001F2E2
:100A580008DFF48029E493A3F85407240CC8C333AF
:100A6800C4540F4420C8834004F456800146F6DF7E
:100A7800E4800B0102040810204080900D3FE47EC2
:100A8800019360BCA3FF543F30E509541FFEE49373
:100A9800A360010ECF54C025E060A840B8E493A33A
:100AA800FAE493A3F8E493A3C8C582C8CAC583CA65
:100AB800F0A3C8C582C8CAC583CADFE9DEE780BE1D
:010D5E000094
:1004570075F008758200EF2FFFEE33FECD33CDCC5C
:1004670033CCC58233C5829BED9AEC99E5829840DF
:100477000CF582EE9BFEED9AFDEC99FC0FD5F0D6BC
:10048700E4CEFBE4CDFAE4CCF9A88222B800C1B9E6
:100497000059BA002DEC8BF084CFCECDFCE5F0CB24
:1004A700F97818EF2FFFEE33FEED33FDEC33FCEB5D
:1004B70033FB10D703994004EB99FB0FD8E5E4F918
:1004C700FA227818EF2FFFEE33FEED33FDEC33FC05
:1004D700C933C910D7059BE99A4007EC9BFCE99AF9
:1004E700F90FD8E0E4C9FAE4CCFB2275F010EF2F3E
:1004F700FFEE33FEED33FDCC33CCC833C810D7073E
:100507009BEC9AE899400AED9BFDEC9AFCE899F878
:0E0517000FD5F0DAE4CDFBE4CCFAE4C8F9220B
:00000001FF
