:1009BC00C0F9A4B0999282F880908883C6A1868EE3
:1009CC00FFBF89E18FC7C8A38CC187C298AFC891FC
:1009DC0040792430191202780010B9010204081071
:0309EC0020408028
:1008F200012401026B0190025600FF1026007F00C6
:10090200BF00DF00EF00F700FB00FD00FE10360025
:10091200FE00FD00FB00F700EF00DF00BF007F08D4
:1009220046007E00BD00DB00E7084E00E700DB006A
:10093200BD007EC180012100085810101010101057
:02094200101093
:0C0A6700F8E6F55608E6F557AF6CAE6BEC
:100A7300EF1FAC0670011E4C600A7D027CEFDCFEAA
:040A8300DDFC80EC2A
:010A8700224C
:100983007580FFE5A0541F4480F5A053A01F758018
:10099300AFE5A0541F44A0F5A053A01F7580FFE549
:1009A300A0541F44C0F5A053A01F7580FFE5A054B9
:0909B3001F44E0F5A053A01F222F
:100B81005389F0758A18758CFCC28DD28CD2A9D28A
:020B9100AF2291
:10089500E4FB20B0047B07801320B1047B06800CA9
:1008A50020B2047B05800520B3027B04EB65216043
:1008B500397F147E00120A73EB6521602D8B21EBC5
:1008C5006028EB6521702020B0047B0780F420B1FF
:1008D500047B0680ED20B2047B0580E620B3047B13
:0C08E5000480DFE4FB80DBAF21227F00F9
:0108F10022E4
:100945007580FFE5A0541F44E0F5A053A01FE522E4
:100955009009E793F580E5A0541F44C0F5A053A086
:100965001F74582522F8E69009BC93F580E5A0543C
:0D0975001F44E0F5A053A01F0522532207E8
:010982002252
:100A1B007515007516107B117A007D107C007F1107
:100A2B008F588D598B5A850E5B85105C85125D85B1
:060A3B00145E85165F2227
:10064900120983120B81300107C2011208958F65C7
:100659002002030206EFC2027F03120A41AC07E43B
:100669001202378F638E628D618C60E4FBFA797FA9
:100679007843120117E4FBFA79A0784012000E12B0
:10068900026B8E688F69AC68AD69E4120232E4FBD3
:10069900FA79A0783F1201B4600A400875645A7566
:1006A90066018042AC68AD69E4120232E4FBFA7972
:1006B9002078401201B4600A4008756432756602F8
:1006C9008024AC68AD69E4120232E4FBFA797078EF
:1006D900401201B4600A400875640A756603800611
:1006E900E4F564756604E52424FE6010146013249F
:1006F90002600302064F12079D02064F12034F02C2
:08070900064F1204FE02064F28
:10079D00E565B40406752402E4F565300007AF2362
:1007AD00120B1D800BE5A0541F4480F5A07580FF32
:1007BD0020B0387F0A7E00120A73E566FD7C007555
:1007CD000D00750E10750F00751010751100751256
:1007DD00107513007514107515007516107B107AB1
:1007ED00007F11120A2B20B02D80FB750D00750EA8
:1007FD0010750F007510107511007512107513001E
:10080D007514107515007516107B107A007D107C0F
:07081D00007F10120A2B22DC
:10034F00E565B40406752403E4F565E565B4070FA8
:10035F000523E523D394044003752301E4F565E5F4
:10036F0065B4060F1523E523C394015003752304C9
:10037F00E4F565C3E56C94E8E56B9403AE6BAF6C85
:10038F00400302042E7C007D641202EC7C007D0A87
:10039F001202ECAA04AB05AE6BAF6C7C007D0A12A7
:1003AF0002EC7C007D0A1202EC8C0F8D108A0D8BF3
:1003BF000EAE6BAF6C7C007D0A1202EC8C118D12AD
:1003CF00751300751410120A1B7F207E03120A7317
:1003DF00AE6BAF6C7C007D641202EC7C007D0A1268
:1003EF0002ECAA04AB05AE6BAF6C7C007D0A120267
:1003FF00EC7C007D0A1202EC8C0F8D108A0D8B0E97
:10040F00E523FD7C00C004C005AE6BAF6C7D0A1206
:10041F0002EC8C118D127513007514100204E37C1D
:10042F00037DE81202ECAA06AB07AE6BAF6C7C0043
:10043F007D641202EC7C007D0A1202EC8C838D82AB
:10044F00AE6BAF6C7C007D0A1202EC7C007D0A1251
:10045F0002EC8C118D1285830F8582108A0D8B0E05
:10046F00AE6BAF6C7C007D0A1202EC8C138D1412F4
:10047F000A1B7F207E03120A73AE6BAF6C7C037D69
:10048F00E81202ECAA06AB07AE6BAF6C7C007D6482
:10049F001202EC7C007D0A1202EC8C838D82AE6B13
:1004AF00AF6C7C007D0A1202EC7C007D0A1202EC1C
:1004BF008C118D1285830F8582108A0D8B0EE5238B
:1004CF00FD7C00C004C005AE6BAF6C7D0A1202EC60
:1004DF008C138D14751500751610D005D0047B1173
:0F04EF007A007F11120A2B7F207E03120A7322DC
:1004FE00E565B4071FE4F5657464256CF56CE435A9
:10050E006BF56BD3E56C94B0E56B94044006756B9C
:10051E0001756C90E565B40620E4F565749C256C58
:10052E00F56C74FF356BF56BC3E56C9490E56B94CD
:10053E00015006756B04756CB0E565B40406E4F500
:10054E0065752401E523FD7C00750D00750E107593
:10055E000F007510107511007512107513007514BB
:10056E00107515007516107B117A007F11120A2B6B
:10057E007F207E03120A73C3E56C94E8E56B940347
:10058E00AE6BAF6C40597C037DE81202ECAA06AB51
:10059E0007AE6BAF6C7C007D641202EC7C007D0AB2
:1005AE001202EC8C838D82AE6BAF6C7C007D0A12D6
:1005BE0002EC7C007D0A1202EC8C118D1285830FE9
:1005CE008582108A0D8B0EE523FD7C00C004C005CC
:1005DE00AE6BAF6C7D0A1202EC8C138D1480417CD5
:1005EE00007D641202ECAA06AB07AE6BAF6C7C000A
:1005FE007D0A1202EC7C007D0A1202EC8C0F8D102B
:10060E008A0D8B0EE523FD7C00C004C005AE6BAFDA
:10061E006C7D0A1202EC8C118D127513007514107C
:10062E00751500751610D005D0047B117A007F1158
:0B063E00120A2B7F207E03120A732299
:100B1D00EF24FE600D14600D14600D2403700C02A3
:0C0B2D000A88020AA6020AC4120AE22288
:100A8800E5A0541F4480F5A0E4F56AE56A25E02452
:0E0A980026120A67056AE56AD3940740EE222B
:100AA600E5A0541F4480F5A0E4F56AE56A25E02434
:0E0AB60036120A67056AE56AD3940740EE22FD
:100AC400E5A0541F4480F5A0E4F56AE56A25E02416
:0E0AD40046120A67056AE56AD3940340EE22D3
:100AE200E5A0541F4480F5A0E4F56AE56A25E024F8
:0E0AF2004E120A67056AE56AD3940340EE22AD
:03000B00020824C4
:10082400C0E0C0F0C083C082C0D075D000C0001248
:10083400094505250567E567C394644003756700AA
:10084400E567C39564E5A0541F44805007F5A0856F
:1008540057808005F5A07580FFE52575F00A84E5CD
:10086400F07002D201E52575F03284E5F07002D211
:1008740002E52575F0E88485F025E565B40505B243
:1008840000756500D000D0D0D082D083D0F0D0E005
:010894003231
:040BA200D2A07F0559
:080BA60000AE071FEE70F922FA
:0F0B9300D2A1120BA2C2A17F05120BA6C2A022F3
:0C0BAE00C2A1120BA2D2A17F05020BA66F
:100B5400C2A0A20392A17F05120BA6120BA2C2A0EF
:070B6400D2A17F05020BA6E0
:0A0B3900AB07120B937F901209EF37
:100B4300120BA2A2A19203C2A07F05120BA6A203BD
:010B5300227F
:0209EF00AD0752
:1009F100E4FCC2A07F05120BA6ED30E704D2A18072
:100A010002C2A17F05120BA6D2A0ED25E0FD7F0554
:090A1100120BA60CBC08DBC2A00C
:010A1A0022B9
:100B0000E4FC120BA2ED25E0FD30A103430501C278
:0C0B1000A07F05120BA60CBC08E8AF0586
:010B1C0022B6
:100B6B00120B397F431209EF120B43AF031209EF3C
:060B7B00120B43020BAE59
:100A4100120B39AF031209EF120B43120B937F9173
:100A51001209EF120B43120B00AD07D203120B5414
:050A6100120BAEAF0511
:010A6600226D
:10000E00EC4D6011E8497017ED33EC3304600DE4EC
:10001E00FCFFFEFD22E933E8330470F80202D7122A
:10002E0002A258046009E4CC24815006285009022B
:10003E0002E12840030202DEC0E0EB4A7044B980C0
:10004E0006D0E0FB0202CDEF4E701CBD8008EBFF28
:10005E00EAFEE9FD80EBE98DF0A4FEE5F00200F783
:10006E00E9CDF9EAFEEBFFEF89F0A4FCE5F0CE89CD
:10007E00F0A42EFFE435F0CD89F0A42DFEE435F08A
:10008E008067EF4E7005BD80D780C3EF8BF0A4ACB8
:10009E00F0EE8BF0A42CFCE435F0F8EF8AF0A42CF3
:1000AE00E5F038FCE433CB8DF0A42CFCE5F03BF806
:1000BE00EE8AF0A42CFCE5F038F8E433CF89F0A4F6
:1000CE002CFCE5F038CF3400CE89F0A42FFFE5F0FC
:1000DE003EFEE433C98DF0A42EFEE5F039CD8AF054
:1000EE00A42FFFE5F03EFEE43DFD33D0E0FB5007CC
:1000FE000BBB000F0202E1EC2CFCEF33FFEE33FEE4
:06010E00ED33FD0202B911
:100114000202E1EC5D046005E8590470030202D7B1
:100124001202A2580460F6EC4860F2EC7004FDFE82
:10013400FF22C860DB2481C85009C39860025006BE
:100144000202DE9850CAF582E9294B4A7005AB8257
:100154000202CD75F0007C1A7880C3EF9BEE9AED15
:1001640099400DC3EF9BFFEE9AFEED99FDE842F036
:10017400DC23ACF0D0E0FFD0E0FED0E0FDAB822089
:10018400E7101BEB60BAEC2CFCEF33FFEE33FEED13
:1001940033FD0202B9E803F830E705C0F075F0005A
:1001A400EF2FFFEE33FEED33FD40B830E7C280AAF7
:1001B40074F8CC6480CCC86480C8F58204604FC3F2
:1001C400EB9FF5F0EA9E42F0E99D42F0E89C45F091
:1001D400603C501DE5825FFFE582D313CB5BCBF41B
:1001E4002B5582FB50280ABA002409B90020088044
:1001F4001DE5825BFBE582D313CF5FCFF4C3132FDE
:100204005582FF50090EBE00050DBD00010CC3EB65
:100214009FF5F0EA9E42F0E99D42F0E89C45F060CB
:0902240007CC4820E701B3EC22ED
:10022D0075F020800E75F010800575F0087D007E4C
:10023D00007F003392D530D503120341EC334010CB
:10024D00EF33FFEE33FEED33FDEC33FCD5F0ED2255
:0E025D00E5F0247EA2D513CC92E7CDCEFF2291
:10026B00EDD2E7CD33EC3392D524814006E4FFFE8B
:10027B00FDFC22FCE4CFCECDCC24E0501174FF80EA
:10028B00EDC3CC13CCCD13CDCE13CECF13CF047087
:07029B00F030D5DE02034143
:1002A200E9D2E7C933E833F892D5EDD2E7CD33ECA2
:0702B20033FC5002B2D5221B
:1002B900EC30E7100FBF000C0EBE00080DBD0004A6
:1002C9000BEB6014A2D5EB13FCED92E7FD2274FF52
:1002D900FCFDFEFF22E480F8A2D574FF13FC7D80AB
:0302E900E480EFBF
:03000000020711E3
:0C071100787FE4F6D8FD75816C02075873
:1002EC00BC000BBE0029EF8DF084FFADF022E4CCF6
:1002FC00F875F008EF2FFFEE33FEEC33FCEE9DECBF
:10030C00984005FCEE9DFE0FD5F0E9E4CEFD22ED04
:10031C00F8F5F0EE8420D21CFEADF075F008EF2F4E
:10032C00FFED33FD4007985006D5F0F222C398FD3F
:05033C000FD5F0EA22DC
:0E034100C3E49FFFE49EFEE49DFDE49CFC22CD
:10071D00020649E493A3F8E493A34003F68001F2A3
:10072D0008DFF48029E493A3F85407240CC8C333DD
:10073D00C4540F4420C8834004F456800146F6DFAC
:10074D00E4800B01020408102040809008F2E47E42
:10075D00019360BCA3FF543F30E509541FFEE493A1
:10076D00A360010ECF54C025E060A840B8E493A368
:10077D00FAE493A3F8E493A3C8C582C8CAC583CA93
:10078D00F0A3C8C582C8CAC583CADFE9DEE780BE4B
:0109440000B2
:00000001FF
