:1001D800020A000102080000020C0000020E0000E2
:0401E8000210000001
:05000600D2A8D2AA22DD
:10021500758901758CFE758A0CD2A9D2AFD28C2254
:10001600120215120006E5A0541F44A0F5A0C286E0
:10002600E50945087002C286E50B6401450A70338E
:10003600E50964014508702BF50CF50DC3E50D9433
:1000460001E50C940040F5B286050FE50F70020538
:100056000EC394C8E50E94004009E4F50AF50BF5C5
:100066000EF50FE50B450A70B7E509640145087002
:10007600AFF50CF50DC3E50D9402E50C940040F5C3
:10008600B2860511E51170020510C394C8E51094F7
:1000960000408D750A00750B01E4F510F51180809E
:03000B00020202EC
:10020200C0E0758CFE758A0B050DE50D7002050CBC
:03021200D0E03207
:0300030002018671
:10018600C0E0C0F0C083C082C0D075D000C000C03F
:1001960001C002C003C004C005C006C0077F0A7EB6
:1001A600001201ED20B2067508007509017F0A7E6E
:1001B600001201ED30B2FDD007D006D005D004D034
:1001C60003D002D001D000D0D0D082D083D0F0D0DE
:0201D600E03215
:03001300020132B5
:10013200C0E0C0F0C083C082C0D075D000C000C093
:1001420001C002C003C004C005C006C0077F0A7E0A
:10015200001201ED20B308750800750900C2867F00
:100162000A7E001201ED30B3FDD007D006D005D0D3
:1001720004D003D002D001D000D0D0D082D083D01E
:04018200F0D0E032A7
:1001ED00EF1FAC0670011E4C600A7D027CEFDCFE39
:0401FD00DDFC80ECB9
:0102010022DA
:030000000200A655
:0C00A600787FE4F6D8FD7581110200EDB2
:1000B200020016E493A3F8E493A34003F68001F24E
:1000C20008DFF48029E493A3F85407240CC8C3334F
:1000D200C4540F4420C8834004F456800146F6DF1E
:1000E200E4800B01020408102040809001D8E47ED5
:1000F200019360BCA3FF543F30E509541FFEE49313
:10010200A360010ECF54C025E060A840B8E493A3D9
:10011200FAE493A3F8E493A3C8C582C8CAC583CA04
:10012200F0A3C8C582C8CAC583CADFE9DEE780BEBC
:0101EC000012
:00000001FF
