:02016200C100DA
:09009A007F041200A37580FF0F22
:1000A300EF24FB601314601914601F24037023E50D
:1000B300A0541F4480F5A022E5A0541F44A0F5A03E
:1000C30022E5A0541F44C0F5A022E5A0541F44E03C
:0300D300F5A02273
:0600030012009AC28622E1
:100109003000277F041200A3E4F5800F1200A3D268
:1001190086E508C3941440F9E4F50812009AC286EA
:0B012900E508C3941440F9E4F5082237
:10014900758901758C3C758AAFD2A9D2AFD28C2240
:1000D6001200031201497F0A7E0012013420B00C7F
:1000E6007F0A7E0012013420B002D20020B10F7FB9
:1000F6000A7E0012013420B105120003C20012016B
:030106000980D39A
:03000B0002015996
:09015900758C3C758AAF05083273
:10013400EF1FAC0670011E4C600A7D027CEFDCFEF2
:04014400DDFC80EC72
:010148002294
:0300000002000EED
:0C000E00787FE4F6D8FD758120020055D3
:10001A000200D6E493A3F8E493A34003F68001F226
:10002A0008DFF48029E493A3F85407240CC8C333E7
:10003A00C4540F4420C8834004F456800146F6DFB6
:10004A00E4800B0102040810204080900162E47EE3
:10005A00019360BCA3FF543F30E509541FFEE493AB
:10006A00A360010ECF54C025E060A840B8E493A372
:10007A00FAE493A3F8E493A3C8C582C8CAC583CA9D
:10008A00F0A3C8C582C8CAC583CADFE9DEE780BE55
:01016400009A
:00000001FF
